:020000041000EA
:1000000000B5324B212058609868022188439860DF
:10001000D860186158612E4B002199600221596106
:100020000121F02299502B49196001219960352056
:1000300000F044F80222904214D00621196600F024
:1000400034F8196E01211966002018661A6600F04E
:100050002CF8196E196E196E052000F02FF8012189
:100060000842F9D1002199601B49196000215960AB
:100070001A491B48016001219960EB211966A021F2
:10008000196600F012F800219960164914480160C1
:100090000121996001BC002800D000471248134993
:1000A000086003C880F30888084703B5996A0420EC
:1000B0000142FBD001200142F8D103BD02B5186610
:1000C0001866FFF7F2FF186E186E02BD00000240BE
:1000D000000000180000070000035F00212200005C
:1000E000F4000018222000A00001001008ED00E03C
:1000F00000000000000000000000000074B24E7A12
:1001000000200420F7010010C3010010C5010010F9
:10011000C1010010C1010010C1010010C101001097
:10012000C1010010C1010010C1010010C701001081
:10013000C1010010C1010010C9010010CB01001065
:10014000CD010010CD010010CD010010CD01001037
:10015000CD010010CD010010CD010010CD01001027
:10016000CD010010CD010010CD010010CD01001017
:10017000CD010010CD010010CD010010CD01001007
:10018000CD010010CD010010CD010010CD010010F7
:10019000CD010010CD010010CD010010CD010010E7
:1001A000CD010010CD010010CD010010CD010010D7
:1001B000CD010010CD010010CD010010CD010010C7
:1001C00000BE00BE00BE00BE00BE00BEEFF3058054
:1001D000103800BEF2EB8871CC950010E895001045
:1001E0003402001090A31AE700201F49086006C8D7
:1001F00081F3088810471D48006800282FD10DA4FE
:100200000ECC002902D000F012F8F9E71849194A7B
:10021000002000E001C19142FCD1174988471749ED
:1002200088471749884700BEFDE701C901C29A42C5
:10023000FBD37047E8950010C00000206C0200203E
:1002400094970010000004200000042094970010F0
:10025000001004200010042000000000704709482E
:1002600006F0D6FF0047000008ED00E0000000D0D7
:10027000700200207C120120115B00107539001003
:10028000055C00105756000006005250ABB3605397
:100290008095001006005250861C030290950010B5
:1002A000060052505422A29D98950010050052500D
:1002B000DE65F46894970010F8B5C0460448054B15
:1002C00010B5834203D0044B002B00D0984710BDDB
:1002D0006C0200206C020020000000000648074964
:1002E000091A8B10C90FC91810B5491003D0044B57
:1002F000002B00D0984710BD6C0200206C0200203B
:100300000000000010B5074C2378002B09D1FFF73F
:10031000D5FF054B002B02D0044800E000BF0123AD
:10032000237010BD70050020000000003087001011
:10033000054B10B5002B03D00449054800E000BF71
:10034000FFF7CCFF10BDC046000000007405002080
:10035000308700100300401A00D47047C81AFCE729
:100360000300401A00D47047C81AFCE7F0B5060035
:10037000002932D0002A30DD002000E001300B5C83
:10038000202B01D0092B01D19042F7D12D2B1ED06B
:1003900000239C4600270023824208DC1DE09D00CC
:1003A000EB185B0001300127E318824206D00C5C99
:1003B000303CE5B2092DF2D9002F0ED0002E03D02B
:1003C0006246002A01D13360F0BD5B42FBE79042F8
:1003D00003DA012301309C46DCE701204042F3E7C9
:1003E000F0B50600022A2DDD0B78302B22D120201B
:1003F0004B788343582B5AD0002700250024481BF4
:1004000000E01D00435D002B4CD0303BD9B20929E0
:1004100016D8A1000C1964001C196B1C9A42F0D16B
:10042000002F3BD02B006442002D37DCD817C01AB8
:10043000C00F06E02D2BDFD1012701250131DDE7BB
:100440000020F0BD0029FBD0002AF9DD0B782D2B10
:1004500017D0002B59D0303BD8B20928F0D8012A48
:100460000ADD4A78002A4CD0303AD1B20929E7D8BF
:100470009900CB185B00D3180120002EE1D0336027
:10048000DFE7022ADCD14B78002BD9D0303BDAB23F
:100490000020092AD5D801205B42EEE7002EC5D006
:1004A0003460C3E72B00002FBED0013DBAE7002423
:1004B00000250231901E03E07D190134A04219D0BD
:1004C0000B5D002B13D01F00303FFAB22D01092A1B
:1004D000F2D91A00413A052A02D8373B5D19ECE7F8
:1004E0001A00613A052AABD8573B5D19E5E70020B1
:1004F000002CA6D0002E02D001203560A1E70120FB
:100500009FE701200128B8D09BE700200300F9E70E
:10051000F0B50600022A2DDD0B78302B22D12020E9
:100520004B788343582B5AD0002700250024481BC2
:1005300000E01D00435D002B4CD0303BD9B20929AF
:1005400016D8A1000C1964001C196B1C9A42F0D13A
:10055000002F3BD02B006442002D37DCD817C01A87
:10056000C00F06E02D2BDFD1012701250131DDE78A
:100570000020F0BD0029FBD0002AF9DD0B782D2BDF
:1005800017D0002B59D0303BD8B20928F0D8012A17
:100590000ADD4A78002A4CD0303AD1B20929E7D88E
:1005A0009900CB185B00D3180120002EE1D03360F6
:1005B000DFE7022ADCD14B78002BD9D0303BDAB20E
:1005C0000020092AD5D801205B42EEE7002EC5D0D5
:1005D0003460C3E72B00002FBED0013DBAE70024F2
:1005E00000250231901E03E07D190134A04219D08C
:1005F0000B5D002B13D01F00303FFAB22D01092AEA
:10060000F2D91A00413A052A02D8373B5D19ECE7C6
:100610001A00613A052AABD8573B5D19E5E700207F
:10062000002CA6D0002E02D001203560A1E70120C9
:100630009FE701200128B8D09BE700200300F9E7DD
:100640000F230340092B09D80009820080184000BD
:100650001B18DBB2632B01D858B27047012040420F
:10066000FBE7C04670B50A21050006F02BFE0A2103
:10067000C4B2280006F026FE20010843C0B270BDB7
:1006800000230160426083600373704770B5037B91
:100690000400002B18D0066883683268981A6368D3
:1006A000012B0AD0350000226B68013208C563684F
:1006B000013B9342F8D89200B61831604018A06010
:1006C000616806F0D7FD70BD4368002B0DD0002394
:1006D00000689A008150626801339A42F9D84A430F
:1006E000012308002373A260EDE70022F8E7C0466B
:1006F00010B50420D02403F0FFFE1023240663620B
:10070000022003F0F9FE04230022A362002102204C
:1007100003F0DAFE032003F0EFFE08230022A362B9
:100720000021032003F0D0FE082003F0E5FE802323
:100730005B00A36200220021082003F0C5FE09200F
:1007400003F0DAFE80239B0000220021A36209202F
:1007500003F0BAFE1A2003F0CFFE8023DB046362AD
:100760001B2003F0C9FE80231B056362142003F0E5
:10077000C3FE80235B036362152003F0BDFE80236C
:100780009B036362162003F0B7FE8023DB036362E2
:1007900010BDC046F8B5DE4657464E464546464C67
:1007A000E0B5A369DB0600D582E0444B10259846EE
:1007B000434FA3691D42FCD12668F6B2032E3ED0FA
:1007C0001B2E3CD03B687F2E59D00D2E3BD00A2EDD
:1007D00039D07F2B04DC3B685A1C3A60394AD65426
:1007E000A3691D42E5D001239846374A3248944612
:1007F000364C374D374B802252022021934612E06F
:100800002278D7B2B946002A3FD12A6892461A68A0
:1008100092453DD01A68571C1F606746BA5C02605B
:100820001A685A4539DA0F0082691740BA461142F0
:10083000E6D0F0BCBB46B246A946A046F8BD0023B0
:100840000D263B60CCE7002BCADD3B68802B01DD29
:1008500080233B6040463A681A4907F0A7FB3B6893
:100860007F2B06DC002241463B68CA543B680133BB
:100870003B603A68184B1A6000233B60B0E7002BDE
:10088000AEDD3B68013B3B60AAE753460360D0E71F
:100890004346002B04D00660CBE74A461A60AAE71D
:1008A00050238363426B183B13400C4A1360C0E72C
:1008B00000230026984698E700400340640E00207D
:1008C000E40E0020E40D0020F80F0020711201203A
:1008D0001810012014100120E80E002034500340AD
:1008E000962110B5244C0901200004F041FE02219C
:1008F000002003F0D1FD0221012003F0CDFDE12114
:100900002000490204F0A4FEC022236B120213400F
:100910001A4A142013606022E36A5A406E2313407F
:10092000174A13601023E16A0B401360154903F066
:100930005FFEFF21142003F05DFF0121142003F06E
:100940003DFE5023A363626B183B13400E4A1360B5
:100950000E4B00229B5E202B06D02021064A936975
:100960001942FCD1116010BD2022A3691A42FCD1AA
:100970000D232360F1E7C0460040034030500340A0
:100980002C50034095070010345003401C100120E8
:10099000F0B54646D6464F46C0B5061E56D007F0BF
:1009A0003DFE041E52D080235B02984253DC01239B
:1009B000334F344D3B702B6898462B68002B04DB7B
:1009C00080232A685B029A4201DB00232B6080228D
:1009D0002B6852021B1993423FDC2B4B9A46286826
:1009E00022003100504407F0E1FA286804192C6015
:1009F00080232A685B029A4201DB00232B60234B91
:100A00001A68424514DD29681A68914210DD2A6887
:100A100001321A601A68002A04DB80221968520227
:100A2000914201DB00221A607E2251461B68CA54A3
:100A3000002370223B70164B9A63596B383A0A4078
:100A400014490A605A6B072313400B60E0BCBA4696
:100A5000B146A846F0BD1C00A9E72B682868D31A48
:100A60009946094B4A469A463100504407F09EFA8F
:100A70004B46E41A00232B60002CB9DD4E44AEE750
:100A80007112012018100120F80F0020141001200D
:100A9000004003403450034070B50A4D2B68002BD2
:100AA0000DDD2B680C008B4207DB2200064907F0A6
:100AB0007DFA00232B60200070BD2C68F5E7002430
:100AC000F9E7C046E80E0020640E00200FB400B520
:100AD000A3B025AB8021064A02A8019306F06AFB69
:100AE00002A8FFF755FF032023B008BC04B0184745
:100AF000308700100FB400B5A3B025AB8021064AA3
:100B000002A8019306F056FB02A8FFF741FF0A2056
:100B100023B008BC04B018473887001010B5FFF7A1
:100B2000DFFE10BD10B5FFF7B7FF10BD10B5FFF722
:100B30002FFF10BD0FB410B5A2B024AB04CB8021A1
:100B400002A8019306F036FB040002A8FFF720FF7D
:100B5000200022B010BC08BC04B01847F8B54E46BF
:100B60004546DE465746040089469046E0B50029D2
:100B700029DD1A4B00259B46194B9A4641461948D8
:100B8000FFF7B8FF47460F2342461F40134206D0E7
:100B9000002658460136FFF7FBFEB742F9D1E71BA6
:100BA0001037A94515DD21785046FFF78FFF012347
:100BB0009C460134E0440135BC42F2D10A48FFF7BB
:100BC000E7FEA945DADCF0BCBB46B246A946A04622
:100BD000F8BD0548FFF7DCFEF5E7C046408700108A
:100BE00030870010388700100C8A0010A0220021E6
:100BF00010B552000A4807F0D3F90A4B0A4A190007
:100C00002031516019004031916019006031D1608C
:100C1000190013608031A0331161536110BDC046CB
:100C2000E0060020EC0E0020200C0020F8B5DE4687
:100C3000454657464E46E0B54C4D80212800FFF70B
:100C400071FF041E52DD7F230022EA54484BC0325C
:100C5000180000219B4607F0A3F90022002300267C
:100C600020279046EA5C002A0AD09C4201DC07E07B
:100C7000EA5C202A01D0092A3ED101339C42F7D1F7
:100C80003C48FFF753FF002E30D03B4B00259946E0
:100C90001C0000239A4620335B44984609E020223A
:100CA000404607F0E9FC002857D001351034142DD8
:100CB00010D021680029F8D02022584607F0DCFC2B
:100CC0000028F2D161680029E9D10135A24610342B
:100CD000142DEED15346002B43D053469B68002B76
:100CE00004D0300025499847002830D0F0BCBB46DE
:100CF000B246A946A046F8BD9C42C1DD72015A44E5
:100D00000021914610E01000B84310D01E2908DCE5
:100D100010004138192801D82032D2B24846425436
:100D2000013101339C4204D0EA5C092AEBD100294D
:100D300004D0404672015A44505401369C429FDD13
:100D4000062E00D08EE70B48FFF7F0FE9DE75346D6
:100D50000B48D968FFF7EEFEC8E72D014D44AA46BF
:100D6000BBE70848FFF7E2FEC0E7C046640D00207D
:100D7000EC0E00200C8A0010E0060020200C002061
:100D80004487001070870010F0B50A4E002435002B
:100D900003E001341035142C0AD02F68002FF8D14D
:100DA00024013051012034196160A260E360F0BD7C
:100DB0000020FCE7E006002070B50B4C0B4E250030
:100DC0004135FF3507E0FFF7B1FE3000FFF7AEFE1B
:100DD0001034AC4207D02368002BF9D0E06800281B
:100DE000F1D11800EFE770BDE00600200C8A00107A
:100DF00010B5FFF7E1FF012010BDC046F0B5C646B3
:100E000005000E0000B501001048FFF793FE002D0D
:100E100018DD0F4B002498460E4F05E038000134D2
:100E2000FFF788FEA5420DD0A300F2582100002A4A
:100E3000F4D01378002BF1D040460134FFF77AFE4E
:100E4000A542F1D1012080BCB846F0BD88870010D2
:100E5000B0870010C487001010B50248FFF76AFE83
:100E6000002010BDD087001010B5002803D0044822
:100E7000FFF75CFE10BD0348FFF758FEFAE7C046D7
:100E8000F087001008880010C0B210B5002803D108
:100E90000348FFF74BFE10BD0248FFF747FEFAE795
:100EA0001C8800103488001010B50348FFF742FE7C
:100EB000024801F0F3FD10BD4888001045110010F4
:100EC00010B5134882B0FFF735FE02F045FB041E53
:100ED0001AD01048FFF72AFE072306220521A25642
:100EE000E35661560C48FFF725FE04200022A35E5E
:100EF000032102222056A256615600900748FFF7B0
:100F000019FE012002B010BD0548FFF70FFEF8E7FB
:100F10005C880010748800107C8800109088001095
:100F2000AC880010002370B588B006000C001022B9
:100F3000002104A80293039307F032F8012E2DDD5F
:100F400065682D49280007F025FB002829D10123D9
:100F50006A46137420226846A168FFF741FA002808
:100F60001CD02022E16801A8FFF73AFA002815D02A
:100F7000042E35DC052E39DC6A46009B117C059376
:100F8000019B0693029B5377039B13771B48FFF744
:100F9000D1FD1B4904A801F09DFD00E0002008B030
:100FA00070BD2800174907F0F5FA002809D028007D
:100FB000154907F0EFFA002807D103236A46137496
:100FC000C8E702236A461374C4E728000F4907F0F4
:100FD000E1FA0028E2D104236A4604211374D5E71C
:100FE0002022216902A8FFF7FBF9C3E720226169EB
:100FF00003A8FFF7F5F9BFE7BC880010D4880010FC
:10100000690E0010088B0010C4880010CC880010F6
:1010100010B50348FFF78EFD024801F069FD10BDD1
:10102000F4880010890E001010B50348FFF782FD08
:10103000024801F067FD10BD0C890010511300102B
:1010400010B502F029FA01000248FFF773FD0120F4
:1010500010BDC0462489001070B504000D000128A1
:1010600011DD202249680948FFF7BAF900280AD0A3
:101070000022074B1A60022C06D01800A968203203
:10108000FFF7AEF900E0002070BDC0462008002048
:101090002408002070B501280EDD0B4D2022280009
:1010A0004968FFF79DF9041E01D1200070BD296831
:1010B0000648FFF73FFDF8E7034B05481968FFF7BF
:1010C00039FD0124F1E7C046DC0600204C89001000
:1010D0003889001030B50C00002583B0022802DCEE
:1010E000280003B030BD202268464968FFF710FA97
:1010F000002806D02022A16801A8FFF771F9051E7B
:1011000001D10025ECE7019A00990448FFF712FD90
:10111000009A01991000FFF721FDE1E768890010AE
:10112000C3B210B5002B03D10448FFF7FFFC10BD7C
:10113000FF2101400248FFF7FDFCF8E7748800102A
:101140007C89001010B5040082B01748FFF7F2FC4C
:10115000E3B2002B1CD101F013FB041E1FD0134877
:10116000FFF7E4FC072306220521A256E356615649
:101170000F48FFF7DFFC04200022A35E03210222B8
:101180002056A256615600900A48FFF7D3FC04E0AF
:10119000FF2109482140FFF7CDFC02B010BD0748F0
:1011A000FFF7C4FCF9E7C04690890010748800106E
:1011B0007C880010908800107C890010AC8800109A
:1011C00070B504000D00002086B0032C01DC06B0D1
:1011D00070BD04AE20223000896801F0A3F8002819
:1011E00035DB012320223000E968337101F0ECF88F
:1011F000002831DB042C0BD02022296903A8FFF73B
:10120000EFF800281ED0039B5A1E062A1AD8337105
:10121000072306220521B256F35671561148FFF7EF
:1012200089FC04200022B35E03210222305671564D
:10123000B25600900C48FFF77DFC30000B4901F0DE
:1012400037FCC4E70A48FFF771FC0120BFE70948F3
:10125000FFF76CFC0120BAE70748FFF767FC0120A5
:10126000B5E7C0467C88001090880010211100105E
:10127000108A0010B0890010E089001070B50400D9
:101280000D00002086B0032C01DC06B070BD04AE5A
:1012900020223000896801F045F800283ADB01235C
:1012A00020223000E968337101F08EF800283BDB22
:1012B000042C0BD02022296903A8FFF791F80028FD
:1012C00023D0039B5A1E062A1FD8337107230622F8
:1012D0000521B256F35671561648FFF72BFC042031
:1012E0000022B35E032102223056B256715600909E
:1012F0001148FFF71FFC300002F01EF900280ED045
:101300000E48FFF713FC0120BFE70D48FFF70EFC66
:101310000120BAE70B48FFF709FC0120B5E70A48AE
:10132000FFF708FC0120B0E70848FFF7FFFB0120AA
:10133000ABE7C0467C8800109088001074880010CD
:10134000108A0010B0890010388A0010E08900105F
:10135000C0B210B5002806D101F068FA01000448B7
:10136000FFF7E8FB10BD0348FFF7E0FBFAE7C046D4
:10137000408A0010508A001070B5012811DD0C4D14
:10138000202228004968FFF72BF8041E01D1200015
:1013900070BD286802F0F0FF29680648FFF7CAFB15
:1013A000F5E7034B04481968FFF7C4FB0124EEE797
:1013B00098010020788A0010648A001000B508485F
:1013C00083B0FFF7B3FB0749C8784B780A780190E0
:1013D000887800900448FFF7ADFB012003B000BD02
:1013E000948A001000E100E0A08A001070B5364831
:1013F000364C030022000021FFF7C6FC34482200CF
:1014000003000021FFF7C0FC0021324B324A334871
:10141000FFF7BAFC324800210300324AFFF7B4FC60
:10142000314800210300314AFFF7AEFC304800216B
:101430000300304AFFF7A8FC2F4C304D2100280054
:101440002F4B304AFFF7A0FC2F4E280031002F4BC6
:101450002F4AFFF799FC2F4D210028002E4B2F4AD1
:10146000FFF792FC310028002D4B2E4AFFF78CFC31
:1014700000212D4B2D4A2E48FFF786FC00212D4BD5
:101480002D4A2E48FFF780FC00212D4B2D4A2E4877
:10149000FFF77AFC2D4D2E4B28002E4A2E49FFF7E0
:1014A00073FC210028002D4B2D4AFFF76DFC2D48C1
:1014B000002103002C4AFFF767FC00212B4B2C4A2C
:1014C0002C48FFF761FC70BDC08A0010F10D0010C0
:1014D000C48A0010CC8A0010D5100010E48A0010D5
:1014E000EC8A0010BD130010F48A0010590E001091
:1014F000FC8A0010FD0D0010088B0010108B0010EE
:10150000048B0010A90E00102C8B0010148B0010FF
:10151000C11100103C8B0010308B0010C10E001068
:10152000448B00107D120010608B0010951000108D
:10153000708B0010788B001059100010848B0010F5
:101540008C8B0010250F0010C08B0010E08B00105A
:10155000CC8B001011100010D88B0010E88B0010FD
:1015600029100010F48B001041100010FC8B0010AB
:10157000791300100C8C0010F0B5274F274E3A68F5
:1015800033689A4231DA264BDA68920736D4244A15
:10159000D3685B0730D50424224B234D906819682B
:1015A0000F2901DC19686854196801311960D16884
:1015B0000C42F3D11A6833689A4212DB3A683368F6
:1015C0009A420EDB102216481100C36819401A42D5
:1015D000FAD1D02380221B06920241615A61134B3B
:1015E000197003220E4B1A62F0BD06220C4B5A6191
:1015F0000B4AD3685B07CED40A4BDBE73A680F2A65
:1016000005DD00229A603B6801333B60BFE73A6822
:1016100005498A5C9A60F6E7C80F0020CC0F0020CD
:1016200000C00340B40F0020B80F00207212012048
:1016300010B5124C1249200006F008FE01211020BE
:1016400002F02AFF0121122002F026FF01211320BF
:1016500002F022FF112002F04FFFD02380221B0650
:1016600092025A6212205A61064902F0C1FF01211A
:10167000122002F0A3FF0023636110BD00C00340ED
:10168000A086010079150010194B70B51A78050075
:10169000002A29D10120002925DDD022802412062C
:1016A000A40294611870134BDA68520704D504221F
:1016B0009C68DC682242FBD103220E4B1A620E4B5F
:1016C0000E4A1960002313600D4A1360002D06D0E6
:1016D0000A0010290ADC29000A4806F067FC0E22DD
:1016E0000120044B5A6170BD0020FCE71022F2E794
:1016F0007212012000C00340CC0F0020C80F002050
:10170000B40F0020B80F0020014B1878C0B270470A
:1017100072120120454B70B51A680023D56A84B057
:101720000193029303936B0650D4AB050BD5136E54
:101730003F4B1978012900D171E01B78DBB23D499C
:101740000B70002313636B0714D53B4B3B483C4E97
:101750000DE0116903911968FF2902DC039C1968E7
:1017600074541968013119600468A1423BDA916F21
:101770000029EED11021294226D0324B32481D6873
:101780000468A54233DA1968002902D18021C90012
:10179000019101681C680139A14207DC2B490068EE
:1017A0000968884202D18021890001911968FF29C6
:1017B00003DC19682648415C0291019902980143B3
:1017C00011611A6801321A6004B070BD802321498A
:1017D000D3580B600B68DB03DB0B0B60536D0322EC
:1017E000134B1A70F0E7022411490C70BFE7174C35
:1017F0001E682568AE4214DA1D6801688D4202D168
:101800008021C9000191216818680139814202DCF8
:10181000802189000191802101984900CFE70023B0
:101820008DE7136B8B431363CEE7C046480200205D
:101830007512012073120120840B00207C0B002004
:101840007C0900200C10012030120120F40F002030
:1018500030100120F00F002010B50E2002F04CFED9
:1018600003210E2002F018FE002201210E2002F0BA
:101870002BFE0F2002F040FE03210F2002F00CFE91
:10188000002201210F2002F01FFE0A4C0A4920000D
:1018900006F0BAFD0022236818201A63074902F0F7
:1018A000A7FE0021182002F0A5FF0121182002F058
:1018B00085FE10BD48020020801A06001517001092
:1018C000014B18607047C04624100120F8B5CE4681
:1018D000474680B52C4E3478012C4AD02B4C2C4FE7
:1018E00025680024EC6668600120E866286C2948B9
:1018F000046029483C70347004602848046028481B
:1019000004608146274880460460002B00DD0360A8
:10191000002A0CDD00290AD0802314005B009A42C3
:1019200029DC2200204806F041FB4B461C604B4658
:1019300042461B6812681D4C9B1823601C4B1B6899
:10194000002B08D098471B4B226818603223534362
:10195000194A6433136023680120002B05DD9523A9
:101960009B003870307038702B63C0BCB946B046ED
:10197000F8BD0020F9E71C000B48220006F016FB1A
:101980004B461C60D3E7C04673120120480200207A
:1019900075120120F00F00200C100120840B002094
:1019A000301201207C0B002030100120F40F0020A9
:1019B00024100120281001202C10012010B50E4CFD
:1019C0002378012B02D02078C0B210BD0B4B1B68CE
:1019D000002BF8D098470A4B1968FEF7BBFC094B5F
:1019E0001B689842EFD30022074B1B68DA661A6324
:1019F00004232370E7E7C04673120120241001205E
:101A0000281001202C1001204802002070B50F4E34
:101A1000050033780020022B11D10D4CFE332268D3
:101A20009A4200DD236023688B4200DD2160236839
:101A3000002B05DC0023236000233370206870BD79
:101A400028002268034906F0B1FAF5E77312012075
:101A5000840B00207C0900200022024B18681A60C9
:101A60007047C046F00F002030B5140083B0002846
:101A700025D0002A23DD0022154B164D1A60164B87
:101A80002C601860154B198080235B009C4214DC8D
:101A90006A460B051B0F1371517123000222572058
:101AA00001A9FFF713FF0E4B00280CD01C602B6818
:101AB0000020A34205DB03B030BD1C00E8E7062090
:101AC000F9E70530F7E7012252421A600130F2E7E8
:101AD0008C050020880B0020800B0020661201205E
:101AE0008C0B002070B582B0FFF768FF032818D078
:101AF00011D801280DD0022866D13B4C3B4D2168FE
:101B00002868FFF783FF3A4E0200336804209A42A8
:101B100034D002B070BD0438431E984140000330F9
:101B2000F7E7FFF799FF03000220012BF1D1C8214D
:101B3000304A490013688B42EBD22B4C01331360BF
:101B400025682D4B1A88002D42DD80235B009D42C5
:101B500000DD1D00694613051B0F0B714A712B0038
:101B60000222572001A9FFF7B1FE002830D0204BF8
:101B70001D602368AB4227DB0120CAE72968236880
:101B8000891829601C499B1A088823608218002044
:101B900092B20A8017490860002BBADD1D0080232D
:101BA0005B009D4212DC694613051B0F0B714A71E5
:101BB0002B000222572001A9FFF788FE00280DD034
:101BC00023683560AB42D7DA0520A2E71D00EAE7BB
:101BD0000122074B524205201A609AE701235B421B
:101BE0003360053095E7C046880B0020800B00204D
:101BF0008C0B00208C0500206612012070B5002996
:101C00002AD0002A28DD0024184B194E1C60194BDD
:101C10001F341960184B04401880202332601C1BAD
:101C2000944217DC154D03051B0F22002B706870C2
:101C3000A81C06F0BBF9002329005720A21CFFF7BF
:101C400045FE0F4B00280BD01C6033680020A342D8
:101C500004DB70BD1400E5E70620FAE70530F8E77D
:101C6000012252421A600130F3E7C0468C05002081
:101C70003412012060120120681201203812012064
:101C80005C120120F8B5FFF799FE03280CD005D8A7
:101C9000002840D0012800D06DE0F8BD0438431E74
:101CA000984140000330F8E7FFF7D6FE030002201A
:101CB000012BF2D1C821354A490013688B42ECD27E
:101CC00001331360324A334B1168334C1B8822684E
:101CD000002954D0002A52DD1F2520201D40451B1D
:101CE000954200DD15002D4E1A05120F32707370EB
:101CF0002A00B01C06F05AF9002331005720AA1C14
:101D0000FFF7E4FD00283AD0254B1D602368AB4265
:101D100031DB0120C1E7204C214D23682E681D4F87
:101D20009A1B1B4B22601968891919603B889B1903
:101D3000164E9BB23B803060002AAEDD00291FD0DA
:101D40001F2620201E40861B964216DC134F1A05C4
:101D5000120F3A707B703200B81C06F027F900238E
:101D600039005720B21CFFF7B1FD002808D02368C6
:101D70002E60B342CDDA05208FE71600E6E7084D66
:101D800001235B4205202B6087E7C0468C050020BD
:101D90006012012068120120341201203812012043
:101DA0005C120120F0B58023C6462D4D00B5E968D0
:101DB0005B000E00994200DD1E006B7C6C69022BFB
:101DC0000CD0032B3ED0012B2DD03200002106F089
:101DD000E7F8EE606C6180BCB846F0BD3300E20706
:101DE00035D4012B1ADD023B9C46A31C984667465E
:101DF000012302009F434744A1B21470090A023430
:101E000051700232BC42F7D163465A08531C5B0042
:101E10005400C018530062464444D31A012BD8D151
:101E200004700134D5E70029D3DD0023E218C25441
:101E300001339E42FADC00220134002900DD721ECB
:101E40001419C6E73200FF2106F0AAF8C1E70029FD
:101E5000C7DDA3B21B0A037001340130731EC0E753
:101E6000080C00207047C046F0B5D6464F4646469F
:101E7000C0B5B74D2C78052C00D9A0E0B54AA30019
:101E8000D3589F460123B44E5B42336000232B702E
:101E9000B24B1878002800D0FAE02878431E984109
:101EA000C0B2E0BCBA46B146A846F0BDAC4C6168D1
:101EB000A368994200DB1DE1227C022A00D1D1E116
:101EC000032A00D1C8E1012A00D1D1E180225200C9
:101ED0005B1A802149008B4200DD0B00934200DD3C
:101EE0001300002B00DC01239E4EE3603000FFF75F
:101EF00059FFE26861689C48FEF71CFE3100E26809
:101F0000A088FFF77BFE994B1870002800D0B8E13D
:101F1000022301202B70C4E7914C6168A2689142B2
:101F200000DBEFE0237C022B00D18FE1032B00D1FB
:101F300086E1012B00D17AE180235B008020521AD8
:101F40004000824200DD02009A4200DD1A00002AB1
:101F500000DC01228648E260FEF7ECFDE268A18821
:101F60008448FFF781FD814B1870002800D090E174
:101F7000042301302B7094E7FFF784FE7B4B18702D
:101F8000002800D1AEE0012800D042E101202C70F1
:101F900087E7FFF7A7FD754E3070002800D098E066
:101FA0006F4C2378DA0700D539E19B0700D5BDE0F7
:101FB000E26863689446634463600324E6E70023B1
:101FC000654E2B703368002B00DA61E7092B00DDCA
:101FD00075E169481A01825C002A00D07EE1591C33
:101FE000092B48D00A01825C002A34D1991C082BA5
:101FF00041D00A01825C002A2DD1D91C072B3AD08E
:102000000A01825C002A26D1191D062B33D00A0151
:10201000825C002A1FD1591D052B2CD00A01825C3D
:10202000002A18D1991D042B25D00A01825C002AB0
:1020300011D1D91D032B1ED00A01825C002A0AD1BE
:102040000131022B17D00A01825C002A03D1002B38
:1020500011D1092103323160022A00D1D0E0032AD4
:1020600000D1D2E0012A1BD0002300202B700123D5
:102070005B42336015E72A780A2310003360431E61
:1020800098410A21C0B2002AF1D00131316008E73D
:1020900004283DD100220021374832601A700132F5
:1020A00000232F4C23700B019846C3185F689B6870
:1020B000BC4640446344A36083892C4823820023A8
:1020C00001310370676001206361E3602A70316051
:1020D000E7E6012800D159E701002848FEF72AFD6C
:1020E000052453E71E4B0124D9685A688C46624484
:1020F0005A604BE72248FEF71DFD00232B70164E59
:10210000336860E71F48FEF715FD00232B70F6E7E4
:10211000022870D003286AD0012857D0002000225E
:1021200028701A70431E9841C0B2BAE6E368164F91
:102130009A46994680235B00984638009A4500D815
:10214000AFE0FFF72FFEC2460A4B0021984621E080
:1021500074120120888D00109C010020940B002037
:10216000080C002030110120308C00106D1201206D
:10217000C08C00107C0A0020A08D0010608D001023
:10218000148C0010A48C0010DC05002001318A455D
:1021900000DC8DE043467A5C5B5C9342F6D063687A
:1021A0004F489C466144FEF7C5FC6268E1684046C2
:1021B000FEF7D4FC4B48FEF7BDFC6268E1683800CE
:1021C000FEF7CCFC072305243370DFE60022464CE3
:1021D000227099685A688C4662606244A2609A894B
:1021E0004249228200226261E2600A7097E702227D
:1021F0003D4C2270EDE701223B4C03202270E8E7C2
:102200000123394C032223704DE70223364C2370FF
:1022100049E701003648FEF78DFC0524B6E6354B4C
:1022200062681800E168FEF799FC2378BDE680201B
:10223000E36840000133834200DC7FE601237DE652
:10224000E3687F2B46DCFF20C31A77E6E368013B97
:10225000002B00DD72E66FE6E2687F2A36DCFF20A5
:10226000821A35E6E268013A002A00DD30E62DE602
:102270008020E26840000132824200DC28E6012230
:1022800026E601001C48FEF755FC052301202B70B3
:1022900007E601001948FEF74DFC052301202B70CD
:1022A000FFE5FFF77FFD5346002B00D04CE77FE6AC
:1022B00080214900894500D87AE67A5C6FE72A7860
:1022C0001000411E88411900C0B2DCE60220FF3038
:1022D000821AFDE50220FF30C31A2FE61900BBE683
:1022E000088D0010448D0010080C00206D12012094
:1022F0007C8C00107C0A0020508C0010E08C0010B8
:10230000024B1878431E9841C0B270476D120120ED
:1023100010B501001022024805F048FE10BDC0466D
:10232000940B0020F0B54746CE4680B583B005003B
:1023300001A888461400FEF719F8002840DB019E2A
:10234000172E3DD884423BDD43461B5C3A2B37D1E8
:10235000471CE41BB8442200414601A8FEF706F8DA
:1023600000282DDB019B99463B2B29D8844227DD91
:1023700043461B5C3A2B23D10130241A80442200AF
:1023800041463F1801A8FDF7F1FF031E18DB019A33
:102390003B2A15D83818E41A002C06DD4146CB5CE0
:1023A000092B02D020218B430AD1002D03D04B46AC
:1023B0006E71AB71EA7103B0C0BCB946B046F0BDF6
:1023C00001204042F7E7C046F0B54746CE4680B50B
:1023D00085B0070001A80D001400FDF7C7FF002815
:1023E00046DB019B9846013B1E2B41D884423FDDD2
:1023F0002B5C2E2B3CD1461CA41BAD1922002900BE
:1024000001A8FDF7B3FF002832DB019B9946013B91
:102410000B2B2DD884422BDD2B5C2E2B28D10130A9
:10242000241A2D1822002900361801A8FDF79EFF56
:10243000031E1DDB8021019A49018A4218D23018FF
:10244000E41A002C05DDEB5C092B02D020218B4324
:102450000ED1002F07D002AB1B793A803B71434667
:10246000FB704B46BB7005B0C0BCB946B046F0BD72
:1024700001204042F7E7C04600280ED0C3793B2B2D
:102480000BD805238279C3563B2A06D80020172291
:10249000DBB29A424041C0B200E000207047C04623
:1024A000002813D0C378013B1E2B0FD88378013B43
:1024B0000B2B0BD8802302885B019A4206D203794A
:1024C000062200209A424041C0B200E0002070473E
:1024D00000281CD0C3793B2B19D883793B2B16D805
:1024E0004379172B13D8C378013B1E2B0FD8837861
:1024F000013B0B2B0BD8802302885B019A4206D24A
:102500000379062200209A424041C0B200E0002038
:102510007047C04610B500280AD0002908D005240D
:10252000062207230C578A56CB5644718271C37119
:1025300010BDC04610B5002809D0002907D00023DF
:10254000CC5E04234A88CB5604804280037110BDC0
:10255000002808D0FA23DB0003800223FF334380E6
:1025600000238380C380704710B5002804D0002961
:1025700002D0082205F01AFD10BDC04610B5002398
:10258000C25E00240B5F9A4213DB10DC022202239E
:102590008256CB569A420CDB09DC03220323825677
:1025A000CB5601209A4207DB02DC002000E001202C
:1025B00010BD01204042FBE74042F9E770B5020040
:1025C00006250720555710562C015279641B52B22C
:1025D000A3001B181001801A0201121A1201D3184D
:1025E0000522062607248A568E5710013501801AC7
:1025F000AD1B0C570201AD00101A2C190001001977
:10260000181A70BD7047C04600B583B06B46D91D1F
:10261000002301220B7068201133FFF757F90123C3
:102620005840C0B203B000BD30B585B0FFF7C6F961
:10263000032815D00ED801280AD002284BD1274CE8
:1026400011212000FFF7E2F903000420112B09D02B
:1026500005B030BD0438431E984140000330F7E711
:102660000220F5E72078FDF7EBFF02ADE871607816
:10267000FDF7E6FFA871A078FDF7E2FF6871E0784A
:10268000FDF7DEFF072821D028712079FDF7D8FF5C
:10269000E8707F2063791840FDF7D2FFA870A07919
:1026A000FDF7CEFFFA23DB009C466044288028001B
:1026B000FFF70EFF00280CD029006846FFF754FFF3
:1026C00007486946FFF750FF0020C1E700232B7140
:1026D000DBE70720BCE70520BAE7C046E00B002097
:1026E0009005002070B504001E4D12220021280024
:1026F00005F056FC2000FFF7EBFE00282FD0E07914
:10270000FDF7B0FF6870A079FDF7ACFFA8706079A5
:10271000FDF7A8FFE8702079FDF7A4FF00281BD083
:102720002871E078FDF79EFF6871A078FDF79AFFA9
:10273000A8710023E05E642104F09CFDC8B2FDF79F
:1027400091FF0023E871122229006820FFF7BEF8EC
:1027500001235840C0B270BD07232B71E1E7072069
:10276000F9E7C046F40B002010B5FFF727F9030086
:102770000520042B01D8014AD05C10BD408E00100A
:1027800000487047900500207047C04600B583B0F0
:102790006B460122D91D087000232320FFF796F80D
:1027A00001235840C0B203B000BDC04610B5FFF7CA
:1027B00005F903000520042B01D8014AD05C10BDA7
:1027C000488E0010022310B5002200212320FFF7BD
:1027D0007DF801235840C0B210BDC04610B5FFF7C8
:1027E000EDF8032814D00DD801280AD0022817D1FB
:1027F0000C4C02212000FFF709F903000420022BF2
:1028000008D010BD0438431E984140000330F8E75B
:102810000220F6E72388044A5BBA00201380F0E721
:102820000520EEE7B805002064120120014B18884E
:102830007047C04664120120C0B243425841014B68
:10284000187070476A1201200023024A1370024A6E
:1028500013707047B00B0020A40B00200022F8B5C5
:10286000834D844E2B7804003270052B00D984E010
:10287000814A9B00D3589F46AB68002B00D0BEE036
:102880000133AB60FFF79EFF03005A1E9341DBB29A
:10289000002B1ED0002848D10223337045E0FFF7FB
:1028A000E3FA002815D16F68002F42D0FFF728FD0A
:1028B00001235840C0B2B8473BE0704B1A78002A59
:1028C00000D173E01A0083CA83C500221A705A60CF
:1028D0009A606B4D20002968FDF73CFDFA239B00B0
:1028E000984212D9674A2C601368002B01DD013B26
:1028F0001360654A1368002B01DD013B1360634AD6
:102900001368002B01DD013B13603078F8BDAB6824
:10291000002B3DD101335E48AB60FFF7E3FE0300BF
:102920005A1E9341DBB2002BD3D06B68002B00D032
:10293000984700232B70CCE7AB68002B2FD10133D5
:10294000AB60FFF761FE03005A1E9341DBB2002B20
:10295000BFD00028E9D101233370E6E7AB68022B32
:1029600074D00CDC002B67D0012B63D1FFF71EFF66
:1029700000285BD10223AB60ABE72A70A9E7032BE9
:1029800058D1FFF713FF431E5A1E9341DBB2CAE72B
:10299000FFF7EAFE431E5A1E9341DBB2C3E7FFF77F
:1029A00043FE431E5A1E9341DBB2D0E7394A1278E8
:1029B000002A0BD1334A1168002907D1032018706F
:1029C000354899605860E623136082E72F4A116802
:1029D00000291BD02C4A1168002900D079E7D021AA
:1029E0000906486880023FD48020800348610421A2
:1029F0001970002159609960E623136069E7FFF7B9
:102A0000EDFE431E5A1E9341DBB241E7D021090679
:102A10004868C00224D48020400348610121197015
:102A20000021596099606423136052E7012800D0A7
:102A30007BE74EE7052078E701230120AB60FFF735
:102A4000A5FE03005A1E9341DBB26CE7032310205E
:102A5000AB60FFF79BFE03005A1E9341DBB262E7B7
:102A6000802040038861D9E7802080038861BEE729
:102A7000A40B002079120120508E0010B00B002012
:102A80000C090020B0050020B4050020DC0B00205C
:102A9000BC0B00206A120120392800100122034BD0
:102AA0001A70002258609A6001207047B00B002015
:102AB00010B50C0001000548FFF756FD0222044B3B
:102AC00001201A7000225C609A6010BDBC0B0020CF
:102AD000B00B002010B50C00FFF71AFC0522034BC9
:102AE00001201A7000225C609A6010BDB00B0020BB
:102AF0000322034B1A70002258609A60012070472D
:102B0000B00B00200422034B1A70002258609A6018
:102B100001207047B00B002010B50D2001F0ECFC37
:102B2000D02380221B0692019A62002100220D20F0
:102B300001F0CAFC10220021094805F031FA1022E8
:102B40000021084805F02CFA10220021064805F063
:102B500027FA0A2205490648FDF792FD10BDC04636
:102B600024090020CC050020BC05002048090020D5
:102B70003809002070B5174D04002968FDF7EAFBFD
:102B8000154B98421CD92C60144D2B68012B18D082
:102B90001DDD134C013B22689446634423605A1E9A
:102BA0000021032A04D80531CB1A9900C9188900DD
:102BB0000C48FDF76BFD0C4B186000232B60236065
:102BC00070BD074C64212368002BF1D0E7E7044C6B
:102BD0002368E4E77809002040420F0070090020D4
:102BE000340900203809002074090020D023F0B5F2
:102BF00045465746DE464E461B065C680123E0B557
:102C0000640B7A4F1C4098465C403B78050087B0C7
:102C1000A34218D0764E337B002C6BD09B0700D597
:102C200091E00C220021301D05F0BAF90123356036
:102C300033733C700024200007B0F0BCBB46B246A2
:102C4000A946A046F0BDFFF795FF6A4B1C78002C03
:102C500000D088E0684E3378002BECD0674F280016
:102C60003968FDF777FB664B984200D994E00D2355
:102C7000644DEB56002BDED039682868FDF76AFBFF
:102C80006149070004F0F6FA4201121A93019B1AF7
:102C9000DB001B185D4A9B010600FB1A934200DD16
:102CA0000136FA21A868890004F00CFBFA2180465D
:102CB0008900380004F006FB0D22AA560100D24319
:102CC000D20F0092434632005148FDF733FF3B2EAE
:102CD0000AD8504FA968BB574F4A002B00D091E249
:102CE000B300687BD150B85510220021280005F0B0
:102CF00057F9A0E702223168134333737060FDF780
:102D000029FB337BB060032B93D1444B444AC31857
:102D100093423ED9434B444AC318934251D8434649
:102D200073733200374B23CA23C3190013680B6037
:102D30003E4B23CE23C3190013683D4A0B60136832
:102D40000133136075E77168FDF704FB394B984256
:102D500000D866E74246274B37481A70274B1D605C
:102D6000FDF7E8FE5DE700221A704246224B002183
:102D70001A702448102205F013F93C22002125483E
:102D800005F00EF9F0220021234805F009F900248E
:102D900051E7FF237373C4E728483470FDF7CAFE78
:102DA0002748FDF7C7FE00231A4FFB56013300D01A
:102DB00024E21423FB56012B4AD02248FDF7BAFE29
:102DC00039E7214B984201D90B4B1C700D23F35668
:102DD000002BA6D13200154B23CB23C21B681360F6
:102DE0001A4A13680133136023E7C04670120120AA
:102DF000240900207612012077120120D00F002034
:102E0000C0448403CC05002040420F0020A10700ED
:102E100010900010280D0020380C0020AF3CFFFF60
:102E200046E801006654FDFF95AB0200BC0500209A
:102E30007009002060E3160000920010688E0010F8
:102E4000788E0010A48E0010305705003409002041
:102E50001C2104ADEC717956002900D1D8E115236D
:102E6000FB56002B00D1F6E1013B5A42534116229A
:102E7000BA56DBB2002A00D1EDE1012A01D10132BC
:102E800013431722BA56002A00D1E4E1012A01D1E6
:102E9000033213431822BA56002A00D1DBE1012A7B
:102EA00001D1073213431922BA56002A00D1D2E1C8
:102EB000012A01D10F3213431A22BA56002A00D137
:102EC000C9E1012A01D11F3213431B22BA56002A3D
:102ED00000D1C0E1012A00D1B9E1002B00D137E2D5
:102EE0009C460022012006001E4092195B08FAD180
:102EF000012900D1A3E14B1C00D11BE1BA48FDF729
:102F000019FE00239B46B94B9946B94B9A463A2382
:102F1000FB56002B00D183E12423FE56002E00D166
:102F200082E1013E73425E412523FB56F6B2002B3F
:102F300000D179E1012B01D101331E432623FB5639
:102F4000002B00D170E1012B01D103331E43272355
:102F5000FB56002B00D167E1012B01D107331E4343
:102F60002823FB56002B00D15EE1012B01D10F334A
:102F70001E432923FB56002B00D155E1012B00D124
:102F800056E13000FDF75CFBE870002E00D186E1D1
:102F90000023012298461300334098447608FAD162
:102FA0002A23FE56002E00D14DE1013E73425E41C0
:102FB0002B23FB56F6B2002B00D144E1012B01D1AB
:102FC00001331E432C23FB56002B00D13BE1012B88
:102FD00001D103331E433000FDF732FB072800D137
:102FE00047E12871002E05D0012213003340984498
:102FF0007608FAD12D23FB56002B00D13CE1013B92
:103000005A425341DEB22E23FB56002B00D133E14E
:10301000012B01D101331E432F23FB56002B00D17E
:103020002AE1012B01D103331E433023FB56002B31
:1030300000D121E1012B01D107331E433123FB567F
:10304000002B00D118E1012B00D119E13000FDF770
:10305000F7FAA870002E05D00122130033409844DF
:103060007608FAD13223FE56002E00D10FE1013E40
:1030700073425E413323FB56F6B2002B00D106E1CA
:10308000012B01D101331E433423FB56002B00D109
:10309000FDE0012B01D103331E433523FB56002BEA
:1030A00000D1F4E0012B01D107331E433623FB5638
:1030B000002B00D1EBE0012B01D10F331E4337234E
:1030C000FB56002B00D1E2E0012B01D11F331E4340
:1030D0003823FB56002B00D1D9E0012B01D13F331F
:1030E0001E433923FB56002B00D1D0E0012B00D129
:1030F0003BE13000FDF7A4FAFA23DB009C46604474
:103100002880002E05D00122130033409844760811
:10311000FAD13A23F956012900D1C3E04B1C00D162
:103120001FE13448FDF706FD00234A46137052465E
:10313000136080E5D30700D5E0E66046FDF780FA2E
:103140002323A871FB569C46002B00D1A3E01D2031
:103150003856002800D14BE10138434258411E2324
:10316000FB56C0B2002B00D142E1012B01D101334B
:1031700018431F23FB56002B00D139E1012B01D14D
:10318000033318432023FB56002B00D130E1012BE1
:1031900001D1073318432123FB56002B00D127E12F
:1031A000012B01D10F3318432223FB56002B00D1F2
:1031B0001EE1012B00D11FE1002800D12DE1030009
:1031C000002201210E001E405B08DBB29219002B89
:1031D000F8D16346012B00D1D2E0013300D104E1E4
:1031E000614605488BE6C046E08E00106C12012057
:1031F000280800209C8F0010248F00109248FDF7B3
:1032000099FC18E5B300D058884200D869E56BE511
:103210008E48FDF78FFC74E68D4B99468D4B9A4690
:103220008D48FDF787FC7FE78C48FDF783FC7BE743
:103230001F331E433000FDF703FAE870A8E6114281
:1032400000D15BE679E78648FDF774FC6CE73F3216
:1032500013439C4645E68348FDF76CFC3A23FB5636
:10326000002BD9D000239B46794B9946794B9A463F
:1032700052E600232B71B5E67B48FDF75BFC53E774
:103280000F331E433000FDF7DBF9A870E4E6774802
:10329000FDF750FC48E77648FDF74CFC31E600238B
:1032A00098467DE643460B4200D13AE72800FFF7F7
:1032B000F7F8002800D1A3E0290002A8FFF73AF9A7
:1032C00004200022AB5E032102222856AA5669562A
:1032D00000906848FDF72EFC4B461B78002B25D14B
:1032E0005B46002B00D11FE7634E01234A4602A92B
:1032F00030001370FFF738F9534619685F4B994255
:1033000005D0534601311960022900DC93E45C4882
:10331000FDF710FC4B461B78002B00D18BE4524686
:103320001268022A00DC86E41C0084E4524E02A8E3
:103330003100FFF723F9002806D00123524613601D
:103340005B46002BD1D1EFE65B46002BCDD1EBE6FF
:10335000012900D1D2E54B1C00D0CFE500239C46CB
:10336000EBE64346DB07A1D5DBE67F331E433000A7
:10337000FDF766F9FA23DB009C4660442880C2E62C
:103380001A4200D12CE7FDF75BF968712800FFF7BE
:1033900073F88346002848D0290002A8FFF7BAF83E
:1033A000072306220521EB56AA5669563548FDF734
:1033B000C1FB274B99461B789846002B00D1A4E50A
:1033C0002D4E02A83100FFF7F9F8060001002E4843
:1033D000FDF7B0FB1F4B1E3E9A463C2E00D896E5EB
:1033E00001235246C346136091E5D307CBD5F7E6D8
:1033F0002648FDF79FFB84E51F3318430300DFE6F3
:1034000004200022AB5E032102222856AA566956E8
:1034100000901F48FDF78EFB86E66346012B00D126
:10342000DEE6013300D0DBE6ADE707230622052107
:10343000EB56AA5669561748FDF77CFB044B994694
:10344000044B9A4663E5C0468C8E0010BC8E00107B
:103450006C12012028080020788F00108C9000103A
:103460006C900010CC900010489000102890001034
:10347000008F001090880010B8080020FFFFFF7F29
:10348000EC8F0010588F00106C8F0010AC90001063
:10349000BC8F0010448F0010014B18687047C04665
:1034A00074090020034B00201B78002B00D0024839
:1034B0007047C0466C120120B808002010B504F017
:1034C000D5FF054C2000FFF743F8200004F0EAFF89
:1034D00004F0C4FF10BDC0469805002070B5124D21
:1034E00004002968FCF736FF104B984201D80020F1
:1034F00070BD2C600E4D280005F02AF8041EF6D091
:103500000C482900FFF730F8D022120653681B013F
:10351000D80F002B04DB80231B0520005361E7E755
:1035200080231B059361E3E7900B0020CFFB010094
:10353000E40800209805002070B5050004F0B2FFF3
:10354000041E01D1200070BD29000248FFF70CF8CD
:10355000F8E7C0469805002000487047980500200D
:10356000014BD8689B68704700400540C0B20028F6
:1035700002D10122014B5A727047C046C40B002091
:1035800010B500F0CDFB3A4B186800282AD1394815
:10359000394C437A002B14D123681B0311D4374BC9
:1035A0005B7A002B13D0364B0120597A0123594006
:1035B00000F0C4FD216802200903C90F00F0BEFD20
:1035C00010BD00F0C5FD2D4B5B7A002BEBD1FFF752
:1035D00063FF50280CDD236800201903C90F00F099
:1035E000ADFDE0E70C2840D8264A8300D3589F461B
:1035F0000121002000F0A2FDD5E7FFF74DFF00F00C
:10360000CDFBDDE700F08CFBDAE706211E4800F079
:1036100093FCD5E71D4800F019FDD1E71C4800F0E8
:1036200015FDCDE74721002000F046FDC8E7482101
:10363000012000F041FDC3E74121032000F03CFDE3
:10364000BEE74221042000F037FDB9E743210720FF
:1036500000F032FDB4E70F4B186800F09FFBAFE7B6
:10366000FFF7E4F800F09AFBAAE700F097FBA7E762
:10367000DC060020C4080020D80F002054080020D9
:10368000C40B0020F890001034120000EC900010E1
:10369000F4900010A0010020F0B5704C83B0257AA2
:1036A000002D51D16E4F3D7A002D16D07D7A002D20
:1036B00000D09AE0637A002B00D0C1E00133FF33E1
:1036C000684C3B81237A002B05D0674E737A002B20
:1036D00000D0BCE0237203B0F0BD624C237A002B13
:1036E000F9D0614E737A002BF4D0337D032B00D1D7
:1036F000A4E031002000FEF761FF0130022805D868
:1037000031002000FEF73AFF002818D007230622D8
:103710000521B256F35671565448FDF70BFA0420B2
:103720000022B35E032102223056B2567156009039
:103730004F48FDF7FFF93000FFF7FEFE60720023EF
:103740002372002D4ED1C6E7072306220521A2567B
:10375000E35661564748FDF7EDF904200022A35EC9
:10376000032102222056A256615600904048FDF7E0
:10377000E1F93D4E21003000FEF7F6FE3E4B384F9A
:103780001B683900F3603D4B20001B683361012347
:1037900033723375FEF712FF013002283CD939002D
:1037A0002000FEF70BFF01003548FDF7C3F92000AC
:1037B0003449FFF77DF900237B7280235B0023816E
:1037C0003B7A002B04D07B7A002B2CD000233B7259
:1037D000244C237A002B05D0337D032B00D088E7BF
:1037E000002323720123737275E71F4E39003000E6
:1037F000FEF7BAFE204B1B4C1B68F3601F4B1B6887
:103800003361012333720133337500233B72257A10
:10381000002D00D06DE7E5E739002000FEF7AEFE91
:103820000028BCD1C9E70F4C3B72257A002DD9D0B6
:10383000327D032A00D05CE72372D3E725724AE782
:10384000084C3D72237A002B00D03EE743E7337DDE
:10385000032B00D04DE7002323723CE754080020DF
:10386000C40B0020EC080020C40800204C9100107C
:10387000908800102C910010D80F0020D40F002049
:10388000789100106D35001070B52F4C2F4E637A73
:10389000002B1BD12E4C637A002B27D12D4D6B7A38
:1038A000002B32D12C4C637A002B3DD12900200013
:1038B000FEF75AFE294B1B68E3603368236101233E
:1038C0002372023323756B7A637270BD216930688D
:1038D000FCF746FD224B9842DCD92248FDF72AF935
:1038E000002363721A4C637A002BD7D021693068A9
:1038F000FCF736FD0128D1D91B48FDF71BF9002341
:10390000144D63726B7A002BCCD029693068FCF7B8
:1039100027FD0128C6D91548FDF70CF900230E4CE8
:103920006B72637A002BC1D021693068FCF718FDF7
:10393000012803D8637A002BC7D1B7E70C48FDF7FD
:10394000F9F800236372B1E754080020D40F002077
:10395000C40B0020EC080020C4080020D80F002071
:10396000C0A8000098910010B0910010C8910010FC
:10397000E8910010F8B5DE4657464E464546E0B59C
:10398000FCF7B6FEFDF7CAF8FDF752FE00F0D6F9D7
:10399000FDF762FF9B48FDF793FFFEF763FAFDF723
:1039A00025F9FDF723FD9848FDF7C0F8FEF72AFE3C
:1039B000FEF7EAFEFEF748FFFFF7AEF8FFF77EFDE1
:1039C00002F08AF8002800D018E100240026012126
:1039D000642002F03FF88D48FEF7BAFD8B4B8C480F
:1039E0001C81DC601C611E75FEF7B2FD884B8948A6
:1039F0001C81DC601C611E75FEF7AAFD854B864D9F
:103A00001C812800DC601C611E75FEF7A1FD834B44
:103A10002C819846824BEC609B46824B2C619946E8
:103A2000814B824C9A46824F2E75824B3968D868FA
:103A30009B682060FCF78EFC7F4B0026984207D9DC
:103A4000236842463B6043461B68013601331360DE
:103A5000D0220121120653689B0E194270D1802397
:103A6000DB045361FDF7E2F82068FEF7F7FE05007E
:103A7000012853D02068FFF7B9F8002820D120682A
:103A8000FFF72CFD002830D1FFF706FE002E42D1B3
:103A9000022D03D15B461B6801335BD04B46206887
:103AA0001968FCF757FC654B98424DD8206800F028
:103AB00097FC53461B68002BB7D101F0C1FFB4E758
:103AC000FFF7F0FC011EDAD05048FEF74DFD4246EC
:103AD0004E4B126820681A61D8601A0001231372D5
:103AE0001375FFF7FBFC0028CED0FFF735FD011E54
:103AF000CAD04848FEF738FD464B2268DA60424695
:103B000012681A6101221A720323424A1375FFF7E1
:103B1000C3FD002EBCD0FFF7B7FEB9E7FEF730FEBD
:103B2000011EA7D03A48FEF71FFD4246384B1268E7
:103B300020681A61D8601D720223354A13759AE70E
:103B40008023DB0493618DE74B4622681A60FFF700
:103B500017FDABE7FEF76AFE042833DD092833DDE5
:103B6000182833DD272833DD3B2833DD4F2833DDAC
:103B70006D2833DD8B2833DDB32833DDDB2833DDDF
:103B800087235B00984231DB3233984232DB3C338F
:103B900098422DDB3C3398422EDB82220021C31752
:103BA000920090424B410E33254A12689A4200D14E
:103BB0007CE7501E9A4200DA501C214B186000F03E
:103BC000DBFB73E70023EFE70123EDE70223EBE7DD
:103BD0000323E9E70423E7E70523E5E70623E3E713
:103BE0000723E1E70823DFE70923DDE70A23DBE713
:103BF0000C23D9E70B23D7E70D23D5E71148FCF7B2
:103C000095FFE2E66135001008920010540800208C
:103C1000C40B0020EC080020C4080020D40F0020B2
:103C200098010020AC08002020080020D80F0020B8
:103C300020100120004005403F420F004FC300000C
:103C4000A0010020389200102B4B01201B782B493B
:103C50005A1E934103225B4270B593430A710132AD
:103C60008A71274A0833087001308870D0180138EB
:103C700005780078002440B2002801DB2148445D2B
:103C8000214805782C4300254C70D418023C655718
:103C900026780024002D01DB1A4CA45D45782C43C6
:103CA0000025CC70D418033C655726780024002DDD
:103CB00001DB144CA45D8578D2182C43043A4C7176
:103CC00014781278002352B2002A01DB0D4B1B5DE1
:103CD000C2781343CB710D4B1A780823FF2A04D105
:103CE0000B4B8B600B4BCB60102300210A4A1160F9
:103CF0000A4A136070BDC0466F120120FC0F0120FC
:103D0000DC08002060920010B0080020A401002010
:103D100005FF06FF07FF08FF10100120F80F012024
:103D2000082210B50021034804F03AF90022024BA2
:103D30001A6010BDDC080020B00800200822002115
:103D400010B50F4804F02CF900220E4B03201A6026
:103D50000D4B0E4A1A6009229A8002329A710C4A5F
:103D60001278FF2A01D1002204300A215A7200225F
:103D70001972D871074B1A60074B196010BDC04605
:103D8000DC080020B0080020FC0F0120FF00FC0F21
:103D9000A401002010100120F80F012070B5041EAE
:103DA00000DA86E03023614EF37100285BD0604B6F
:103DB000984259DC0A2103F05DFA3031F17120009C
:103DC0000A2103F057FA051E4DD028000A2103F0FE
:103DD00051FA30312800B1710A2103F04BFA051E67
:103DE00000D18BE00A2103F045FA303128007171CF
:103DF0000A2103F03FFA051E00D187E00A2103F0F3
:103E000039FA3031280031710A2103F033FA051EE6
:103E100000D187E028000A2103F02CFA3031280075
:103E2000F1700A2103F026FA051E00D172E00A2182
:103E300003F020FA30312800B1700A2103F01AFA99
:103E4000051E00D16AE00A2103F014FA30317170C6
:103E500028000A2103F00EFA002804D00A2103F0FA
:103E600009FA3031317070BD0A2103F003FA3031A4
:103E7000F17120000A2103F0FDF9051EF3D028009E
:103E80000A2103F0F7F930312800B1710A2103F05B
:103E9000F1F9051E36D00A2103F0ECF93031280083
:103EA00071710A2103F0E6F9051E2FD0202333712A
:103EB000B0E730231D4E4542F3711E4B984210DB94
:103EC00028000A2103F0D6F930312800F1710A21C7
:103ED00003F0D0F9051E00D077E706232D22F25417
:103EE000C1E728000A2103F0C5F930312800F1713B
:103EF0000A2103F0BFF9051EEFD0C0E7002CB2DAAB
:103F00000523EBE70523002CE8DBACE70423002CBA
:103F1000E4DBA8E70223002CE0DBA4E70123002C6C
:103F2000DCDBA0E70323002CD8DB9CE7DC080020C7
:103F30000F27000019FCFFFF3022434B10B5DA7148
:103F4000002842D100293FDD00223032DA714C1EB8
:103F5000020943D00F242240092A41D937329A71ED
:103F60008C1E020A42D00F242240092A40D937323F
:103F70005A71CC1E020B41D00F242240092A3FD98E
:103F800037321A710C1F020C40D00F242240092A2C
:103F90003ED93732DA704C1F020D3FD00F24224039
:103FA000092A3DD937329A708C1F020E3ED00F2459
:103FB0002240092A3CD937325A70000F3DD10729D7
:103FC00002DD020030321A7010BD0F220240092AB1
:103FD000BBD93732DA714C1E0209BBD1002CF3DD9C
:103FE0003032D2B29A718C1E020ABCD1002CEBDDA9
:103FF0003032D2B25A71CC1E020BBDD1002CE3DD9F
:104000003032D2B21A710C1F020CBED1002CDBDD93
:104010003032D2B2DA704C1F020DBFD1002CD3DD8A
:104020003032D2B29A708C1F020EC0D1002CCBDD80
:104030003032D2B25A70000FC1D002003732092894
:10404000BFD91A70C0E7C046DC080020002830D075
:104050000378002B2DD003001A0059780133002972
:10406000FAD1904225D81178124BD971511E88424D
:104070001FD809789971911E88421AD80978597108
:10408000D11E884215D809781971111F884210D89D
:104090000978D970511F88420BD809789970911FFF
:1040A000884206D80978073A5970904201D81278A8
:1040B0001A707047DC080020072830D81E4B421CBD
:1040C000195407282BD0995C002929D0821C062876
:1040D00025D0995C002901D120319954C21C0528B2
:1040E0001DD0995C002901D120319954021D04286A
:1040F00015D0995C002916D0421D03280FD0995C79
:10410000002913D0821D022809D0995C002910D003
:10411000062A04D1DA79002A01D12032DA717047F7
:1041200020319954D2E720319954E5E72031995450
:10413000E8E720319954EBE7DC080020032804D895
:104140004B1E9941014BC90119547047B00800201A
:10415000052270B58256002A55D1834D2B001900D7
:104160005A780133002AFAD10B78804CE3714B1E48
:10417000AB421FD31B78A3718B1EAB421AD31B78A3
:104180006371CB1EAB4215D31B7823710B1FAB425F
:1041900010D31B78E3704B1FAB420BD31B78A3707B
:1041A0008B1FAB4206D31B7807396370A94201D33A
:1041B0000B78237006268657F317F5185D403023D9
:1041C000EDB2E371002D00D1ABE028000A2103F02D
:1041D00051F830312800E1710A2103F04BF8051E37
:1041E00000D1BCE00A2103F045F809353031A17156
:1041F000122D00D89FE0312363712D3B002E01DA90
:104200002D22E25470BD64230625534345575D19A2
:104210003CD4574A0123954273DD3022534C2E0083
:10422000DBB2E271002DEDD0002B37D130000A2136
:1042300003F020F830313000E1710A2103F01AF860
:10424000061E73D00A2103F015F830313000A17139
:104250000A2103F00FF8061E5ED00A2103F00AF8C7
:104260003031300061710A2103F004F8061E67D076
:104270000A2102F0FFFF093630312171122E46D992
:104280003123E3702F3B002DBADBBBE7394A012312
:104290006E42954237DA354CDBB2C5E730000A2171
:1042A00002F0E8FF30313000E1710A2102F0E2FF54
:1042B000061E3BD00A2102F0DDFF30313000A17133
:1042C0000A2102F0D7FF061E26D00A2102F0D2FFF3
:1042D0003031300061710A2102F0CCFF061E34D06B
:1042E00020230A21237102F0C5FF09363031E17025
:1042F000122E2FD93123A370303B002D00DA7FE737
:1043000080E7002389E70023184CDBB28CE7032306
:10431000002D00DA74E775E70523002D00DA6FE75A
:1043200070E70723002E00DA6AE76BE70623002D0B
:1043300000DA65E766E70523002E00DA60E761E74B
:104340000423002D00DA5BE75CE7002D00DB59E772
:10435000042355E70223002D00DA51E752E7002E2F
:1043600000DB4FE706234BE75C920010DC080020DF
:104370000F27000019FCFFFF002825DB0F2814DCA5
:10438000C1B2124B124A1970124B03201A60092253
:104390009A8002329A710A22597200211A72D871D7
:1043A0000D4B19600D4B1A6070470F21FF28E8D1A3
:1043B000064B074A1870074B07201A6009229A809B
:1043C000023200219A71E6E70021DAE7A401002019
:1043D000FF00FC0FFC0F012010100120F80F01203E
:1043E000F8B5244F244E3B68326805009C1A002C17
:1043F00011DC224C28002168FBF7ACFF204B9842CF
:1044000008D9204B2560DB78002B12D11E4A13708F
:10441000FFF71AFCF8BDFDF777F90028E9D1022C67
:1044200016DC30682318102B17D9002333603B604B
:10443000DFE7164C28002168FBF78CFF144B9842ED
:10444000E6D90121104A256013784B401370DFE74D
:10445000022430682318102BE7D80E4B21001818BF
:10446000FDF712F90028C4D033689C4664443460D8
:10447000BFE7C046F80F012010100120DC0F00201C
:104480004FC30000DC0800206F120120100900203B
:1044900040420F00FC0F0120094A8300944640224D
:1044A000634410B51C68C0006240C02414408022E0
:1044B000520113431C60034B9C466044416010BD95
:1044C00004C00140004001400A4B80009C46042388
:1044D0006044002901D00C230821002A00D10B00E0
:1044E000026853400C221A4080235B01184302608B
:1044F0007047C04604C001400123D0228340120609
:1045000093629361094A8300944640226344196888
:10451000C0004A40C021114080225201134319605B
:10452000034B9C46052360444360704704C0014030
:1045300000400140024B18688007C00F7047C0461A
:1045400000C0064070B5EFF3108C72B60D4D2B68AD
:10455000002BFCD0BFF35F8F0724CB08C618C05CCC
:1045600001230C40A3401C000440034207D1034335
:104570003370BFF35F8F2C608CF3108870BD100018
:1045800001F044FB2C0100D00021044B044ABFF38E
:104590005F8F02C39342FAD17047C046000100D03A
:1045A000800100D0044A1078431CDBB2172B00D9DD
:1045B000102313707047C046A501002001238340DB
:1045C000002904D0034A1360034A13607047034A6A
:1045D0001360FBE780E200E000E100E080E100E042
:1045E000024B10309B688000C058704700ED00E01F
:1045F00070B50D00EFF3108672B60F4A1368002BEA
:10460000FCD0BFF35F8F0D4B10309B6884001B59AB
:104610000B4A934203D09D4201D001F00FFB074BA0
:104620009B681D51BFF35F8FBFF35F8F0022024B6A
:104630001A6086F3108870BD240100D000ED00E000
:10464000CD010010F0B5DE4657464E464546E0B572
:104650000C0083B0EFF3108972B6584A1368002B30
:10466000FCD0BFF35F8F564B9A68030010339F0056
:10467000D559544A9046954232D0A54243D0524E25
:10468000AA1B2F2A2CD801228240924651464F4A1B
:1046900012681140019151464D4A1160BFF35F8F7E
:1046A000EFF305829346002A33D101232A009A436F
:1046B00093689C4208D177E04B005B189B00F3188D
:1046C0009968A1422AD01A00062151560029F3DA2E
:1046D000019B002B19D052463E4B1A603B4B1A608F
:1046E000374B9B68DD51BFF35F8FBFF35F8F0022B5
:1046F000324B1A6089F3108803B0F0BCBB46B24657
:10470000A946A046F0BD1500EAE75246304B1A60B4
:10471000E6E79342C9D001F091FAC6E7062159565F
:10472000002921DB4A005018800034188046A06818
:104730009860E079D871062020569871002824DB13
:10474000A488F01A6405241544440019E0240005E7
:10475000400D24022043988052181F4B9200B61837
:104760001A781970B271B3E7594600290FD1FF3199
:1047700091711A49918018490A789A71184A9B1BBD
:104780005B415A43120D0A70A2E71648E3E7164A46
:104790001649D21A083A5002400D01439980144933
:1047A00052080A43DA8093E7062151561300002984
:1047B000B8DA5A46002AEAD14546DCE7240100D09F
:1047C00000ED00E0CD010010A801002000E100E0B4
:1047D00080E100E080E200E06E12012001BDFFFFF9
:1047E000AAAA000001BD0000E201002000F0FFFFC6
:1047F00000F8FFFF032310B50400074A1840944651
:10480000C0009C43FC3383406444226881409A4347
:1048100013000B43236010BD00E400E070B5EFF31C
:10482000058101240443EFF3108C72B6214A13680A
:10483000002BFCD0BFF35F8F1F4B05001F4AED1A02
:104840006D416A43120D1E4D8900AE6852B2765812
:10485000A6421CD00621595691421CD0122159560D
:10486000914222D01E215956914220D02A215956D8
:104870000324914210D0134B19781A708171BFF341
:104880005F8F00220B4B1A608CF3108870BDAB68F1
:104890000D4C5C50EFE700246100091989005B189A
:1048A000FF21997109499980E5E70124F4E7022481
:1048B000F2E7C046240100D0A8010020AAAA000007
:1048C00000ED00E06E120120CD01001001BDFFFFE0
:1048D000054B064A1360064A136053609360D36029
:1048E00013615361936170478080808000E400E031
:1048F00004E400E0024B9C4661448900016070477B
:104900004000003410B50400FFF74CFE0100200009
:10491000FFF7F0FFFF232371BFF35F8F10BDC04689
:1049200010B50400FFF73EFE01002000FFF7E2FF94
:10493000FF23A380BFF35F8F10BDC04683680B4881
:1049400010B5844661446244090112019A1859184D
:1049500054684B6801209C4201D802D00020C0B2AC
:1049600010BD12680B689A42F9D8F7E7FFFFFF0FF6
:104970000A4B1968EFF3108072B60A68002AFCD05F
:10498000BFF35F8F1B68BFF35F8F00221A6080F355
:10499000108840BF002000217047C046B00F0020A3
:1049A000F8B557464E464546DE46E0B599460CAB4F
:1049B0001C780DAB1B78060090469A460768002CC1
:1049C00011D1BC7B002C42D065003B682D19033D02
:1049D00059194B78BB73002B00D1FB7300238B70EC
:1049E0004B700B7004E065003B682D19033D5919AD
:1049F000B2682A4B94464246E3181B0163441A608E
:104A00004A465A600A9A9A600B9ADA6000238B70C1
:104A10004B700B707B7B9B46002B2BD022005946A2
:104A2000B8687B6898473A68002816D05B465846B5
:104A30005B005B445519033BA870D118D35C002B75
:104A400000D06B705B460C707B73A34513D0F0BC39
:104A5000BB46B246A946A046F8BD5B465B005B4438
:104A6000033BD3189C705119525D002A00D05A7034
:104A70005B460B707C7342464B46307D00F010FB6A
:104A8000051E06D05346002B03D12100306800F0EC
:104A900031FD0E9B002BDAD01D70D8E7FFFFFF0F12
:104AA000F0B5DE4657464E4645460023E0B58BB08E
:104AB0000893664B8200D45800239B46099000F06F
:104AC0009FFA626806000F00EFF3108572B6136854
:104AD000002BFCD0BFF35F8F23689C465B7B99461D
:104AE000002B68D0A2685A4B90464B441B01984457
:104AF00043461A685B6810001900801BB941002901
:104B000063DD099800F0CCFA0023002298460023C8
:104B10000692079300239A466368BFF35F8F5A4655
:104B20001A6085F310885346002B08D10028C6D19F
:104B30000BB0F0BCBB46B246A946A046F0BD089BF0
:104B4000414618024B461843D047626806000F00E2
:104B5000EFF3108572B61368002BFCD0BFF35F8FA4
:104B6000002F4FDB33003B4302D02369002B60D181
:104B70002368D97B002907D04A00521819688C464F
:104B800049466244033A51709A7B002A01D14A4651
:104B90009A734A46DA734B46E168013BCA5C0132BC
:104BA000CA545B4623616368BFF35F8F5A461A603D
:104BB00085F3108883E7002300229846002306929D
:104BC0000793002300209A46A6E7002901D1002878
:104BD00097D10021604600F00BFC43461A685B68E1
:104BE0000692079343469B689A464346DB6898467D
:104BF000E3684B44013B1B7808931B02034323618A
:104C0000002089E72369002BB2D0069A079B921BEC
:104C1000BB41002B15DB5946049101210391494604
:104C2000029141460191514620000091FFF7B8FEE4
:104C3000B7E700F0E5F932003B0012184B41002BBA
:104C4000E9DA0122034B5242E5E7C046140900208D
:104C5000FFFFFF0FFFFFFF7F10B5144C6368002BB1
:104C600004D00A211248FFF745FE10BD2300114A67
:104C70001021206800F0D6FA032000F0B5F90320D7
:104C800000F07EFA03200C4900F0C4F9FFF78AFC1B
:104C90000A4B9C4603232375D0231B061B686044E4
:104CA0006375074B80006060DC60DAE7F00100208C
:104CB000B00F00203D490010A14A00104000003410
:104CC00014090020F0B557464E464546DE46E0B58D
:104CD00085B0019310AB1B780600039300239A461E
:104CE000984600927268EFF3108972B61368002B31
:104CF000FCD0BFF35F8F3568AC7B002C49D06700D8
:104D00002B683F19033FDB195A78AA73002A00D198
:104D1000EA73B168484A8C4600980199A2181201BA
:104D20006244106051600E9991600F99D1604246C3
:104D30009A705A701A706B7B9B46002B45D02200EC
:104D40001900A8686B6898472A68002830D05B462D
:104D500058465B005B44D719033BB870D118D35C4D
:104D6000002B00D07B705B460C706B735C452DD0C4
:104D7000F3681B19013B18787368BFF35F8F4246D5
:104D80001A6089F310885346002B2CD1000220436F
:104D900007E07368BFF35F8F1C6089F31088012000
:104DA000404205B0F0BCBB46B246A946A046F0BDA5
:104DB0005B465B005B44033BD3189C70D119D25D0A
:104DC000002A00D05A705B460B706C73307D009ADD
:104DD000019B00F065F982460028C9D021003068A7
:104DE00000F088FBC4E7039B002B23D00E9B002020
:104DF0000F999847030004000D000B431AD00029B7
:104E00000ADA009A019B121BAB4100920193002B1E
:104E10000ADB039B9A4665E700F0F2F824184D413F
:104E200000940195002DF4DA0123044C5B420093B9
:104E30000194EEE70020B4E7FFFFFF0FFFFFFF7FC5
:104E400070B542680400EFF3108572B61368002B4A
:104E5000FCD0BFF35F8F2068CEB2437BB3420AD051
:104E6000FF230B405A00D318026894466344033B67
:104E70009B78002B13D0E268FF2394460B406344D9
:104E8000013B0A0A1978D2B291420ED00020636821
:104E9000BFF35F8F00221A6085F3108870BD22690E
:104EA0008A42F3D100202361F1E7310000F022FBB8
:104EB000EDE7C04670B5EFF3058305000C0084B044
:104EC000002B0AD0164A0020536A9C4203D8926AEB
:104ED0000130AA421FD304B070BD124E0293019359
:104EE000114B0200009330000B00FFF7EBFE011E98
:104EF000E8DD20BF3000FFF7A3FF094B0020596A0F
:104F00008C42E8D89B6A0130AB42E4D2641A631E3B
:104F10009C41E0B2DFE7E41A631E9C41E0B2DAE7AD
:104F200000400540F001002071490010F0B5EFF39A
:104F30000582D6464F4646461000C0B51038EFF3FE
:104F4000108872B6214C2368002BFCD0BFF35F8F12
:104F50000123190081401E4D1F006963AA461D4DA3
:104F600029601D4D2E78AC463500C5402F402B42A0
:104F700009D1BFF35F8F276088F31088E0BCBA4681
:104F8000B146A846F0BD5346144D5F6A83005D5993
:104F9000AF420ED3124A8E439B5862461670BFF33F
:104FA0005F8F0022226088F31088002BE6D098479C
:104FB000E4E70C4B92009C46624413681360BFF315
:104FC0005F8F0023236088F31088D7E7280100D083
:104FD000004005403C70054078120120E00F0020A1
:104FE000A0050020D03F054010B50100024A03484B
:104FF000FFF7A8FA10BDC046E09200106B12012026
:10500000034B596A0A00986A596A8A42FAD1704772
:105010000040054070B504000D00EFF3108672B635
:105020001A4A1368002BFCD0BFF35F8F002D1BD0F2
:105030002000FFF7D5FA164981420AD02000FFF779
:10504000D7FA01212000FFF7B9FA0123A340114A42
:105050001360114BA400E550BFF35F8F00220B4B90
:105060001A6086F3108870BD0B4BA200D550012248
:10507000A2400A4920000B7893430B700449FFF7C4
:10508000E1FA00212000FFF799FAE5E7280100D0B6
:105090002D4F001038600540A00500207812012037
:1050A000F0B54F46D6464646C0B507002F4C616A5C
:1050B0000D00A66A616AA942FAD18B4208D805D0D0
:1050C0000120E0BCBA46B146A846F0BDB242F7D9CD
:1050D000EFF3108A72B6264801680029FCD0BFF3AE
:1050E0005F8F0125BD402349204C884609788946B9
:1050F0002943C9B28C46414660460870391D1E4896
:10510000890065630A51B9000B50216A00202942C9
:1051100019D0616A0800A66A616A8142FAD18B429D
:1051200019D801D1B24216D8CC451DD00F4B1F2043
:105130001D625D6301230740BB40104A1E381360A7
:1051400043464A461A70BFF35F8F0022084B1A602D
:105150008AF31088B5E70020BFF35F8F0022044B6D
:105160001A608AF31088ACE70120ECE700400540A4
:10517000280100D078120120E00F002080E200E03A
:10518000EFF3108C72B60A490B68002BFCD0BFF30A
:105190005F8F01238340074A0748136202789A43CE
:1051A0000270BFF35F8F00230B608CF31088704791
:1051B000280100D0004005407812012070B505009C
:1051C00014001600002915D00C00002A12D08068A7
:1051D0006B689847296800280ED073009B196200FD
:1051E000033B1219CB18033A9C7088188A5C002A7A
:1051F00015D10670200070BD63001B197200033BBF
:105200009219CB18033A9E7088188A5C002A02D142
:1052100004703400EEE75A7004703400EAE75A7004
:105220000670E7E730B583600023CCB243730133E7
:10523000047342608373C4730D000068012C06D9A7
:10524000421C0133DBB2137003329C42F9D1FF21BF
:1052500029404B005918002340180338437030BDD3
:10526000F8B5CE46474606000C0080B5002907D0A9
:105270004D0003686D18033D5A195778002F04D16B
:105280002000C0BCB946B046F8BD7900C919033941
:105290008846434459788946002159705170736893
:1052A0003A002100806898473368002814D04246AD
:1052B0009A18947059195B5D002B00D053700F70D1
:1052C000270049463000FFF7CBFF390002003000CD
:1052D000FFF774FF0400D3E7424641465D19AF7003
:1052E0009A185B5C002B00D06B701470E9E7C04625
:1052F000F0B557464546DE464E46E0B50D006B001C
:1053000001685B19DF1E0400C85D83B00192CA19F1
:10531000002850D043001B18033BCB185E78B446DE
:10532000002E1AD1019E002E42D0E67B002E04D022
:1053300073009B19CB18033B5D70A37B002B00D13E
:10534000A573E57300282FD10023537003B0F0BC80
:10535000BB46B246A946A046F0BD72006244033A7D
:1053600089184A78904600224A7091465A70010086
:1053700032002000FFF722FF43468246002B07D071
:105380005B0021684344033BCB185A78002A16D1AE
:10539000424651462000FFF711FF2168019BCA19C0
:1053A000002BC2D10028CFD043001B18033BCB18E1
:1053B00000219970C8E7019B002BB6D1C4E75000CB
:1053C0008018033809184878834648464870587052
:1053D00041462000FFF7F2FE594680462000FFF7C5
:1053E0003FFF414602002000FFF7E8FE8046CFE77E
:1053F000F0B557464546DE464E46E0B583B00191CE
:10540000457B04006B0000685B19DF1EC15DC2199B
:10541000002952D04B005B18033BC3185E78B4469A
:10542000002E1CD1019E002E44D0E67B002E04D01D
:1054300073009B19C318033B5D70A37B002B00D145
:10544000A573E573002931D10023280053706173DF
:1054500003B0F0BCBB46B246A946A046F0BD720000
:105460006244033A80184278904600224270914686
:105470005A7020003200FFF7A1FE43468246002BFF
:1054800007D05B0021684344033BCB185A78002ABD
:1054900017D1424651462000FFF790FE019B0100C4
:1054A0002068C219002BC0D10029CDD04B005B1859
:1054B000033BC31800209870C6E7019B002BB4D1B2
:1054C000C2E75000801803380918487883464846D8
:1054D0004870587041462000FFF770FE59468046DC
:1054E0002000FFF7BDFE414602002000FFF766FEE8
:1054F0008046CEE770B5040000292CD0437B8B4258
:105500002ED0056848004018033828188278002AF1
:1055100021D053009B18033BEA5CEE188A4202D16B
:105520001BE0002A08D053009B18033BEB185A7865
:105530008A42F6D142785A70002301228370437068
:105540002000FFF7D5FE617B02002000FFF736FE4A
:105550006073012000E0002070BD43783370EBE7FA
:1055600001221900FFF7C4FE60730120F4E7C04672
:10557000F8B5040006200D0000F0FCF9002844D026
:105580002A4B2B49E21853425A418023DB039C46A5
:105590009205284B62441A60274B1A6010008B68F2
:1055A0009843FBD1214B8021E3185A425341234AAF
:1055B0005B0049009952062000F0DCF92900C00088
:1055C00001F080FEC30921D140270121260080255A
:1055D0006162A36200232C36AD0135432B600620A7
:1055E00000F0C8F93900800001F06CFE6023E26A27
:1055F00053406E221A4080235B0133431A60104BE4
:10560000236310232B600D3BA364F8BD0D4A934226
:1056100003D900230C4F0D49D8E77F2210400130F9
:1056200040089F0119003F180300CFE70080FCBF2E
:1056300000C0004000E0004000F000401C100120CD
:1056400001030000FEFF0000C0FF3F00FFFF00005D
:1056500070B5040006200D0000F08CF92900C00090
:1056600001F030FEC30906D0104A934215D9002339
:105670000F4D104A01E04025012280206262A362A2
:10568000002380012C3404432360062000F072F9CB
:105690002900800001F016FE70BD7F22104001300D
:1056A00040089D011A002D180300E6E7FEFF0000E8
:1056B000C0FF3F00FFFF000030B50C2083B000F0BA
:1056C000B7F9FEF737FF00280ED0944B944A1A60C2
:1056D0005A609A60DA601A615A619A61DA611A62F4
:1056E000904A5A6203B030BD8F4CA06700F0FCF9BD
:1056F00001228E4B1A60636C012BFCD103228C4B70
:105700001A60894A936B012BFCD101330121894A2C
:1057100089480093043300F033F90523874A009346
:105720000121874800F02CF9864B5A68FF2A02D8DD
:10573000802252005A608022784C7D4B21691201F0
:10574000804D1A60002905D0606901F0BBFD013071
:105750000138FDD1E0217B4B02201A6811408022E4
:1057600052012A4311601968484003210140116029
:1057700004219A681142FCD08022802192012A43A0
:1057800009011160802252005A606F4B23616F4BF8
:105790005968FF2900D85A600321644A6B4B116095
:1057A00002399A681142FCD0E0201A681040802229
:1057B00052011A431060186848400321014002203A
:1057C000116062498A681042FCD080229201134322
:1057D000802212011A6080225D4B52004A60636190
:1057E0005C4B5968FF2900D85A6080225A4BE16906
:1057F0001201584D1A60002905D0606901F062FD60
:1058000001300138FDD1E02252490B681A40802353
:105810005B012B431A60802380229B012B431201E2
:105820001A6080223E4B52004A60E3614B4B59683C
:10583000FF2900D85A608022494B216A1201474D46
:105840001A60002905D0606901F03CFD0130013883
:10585000FDD1E02241490B681A4080235B012B43B4
:105860001A60802380229B012B4312011A6080233F
:1058700080225B004B602A4BD2022362394B59686D
:10588000914200D25A608022374B616A1201354D35
:105890001A60002905D0606901F014FD013001385B
:1058A000FDD1E0222F490B681A4080235B012B4376
:1058B0001A60802380229B012B4312011A608023EF
:1058C000DB024B60174B6362284B5A68FF2A02D8F1
:1058D000802252005A608022254BA1691201234D7B
:1058E0001A60002905D0606901F0ECFC0130013834
:1058F000FDD1E0221D490B681A4080235B012B4338
:105900001A60802380229B012B4312011A6080239E
:105910005B004B600E4BA361E4E6C0462C08002000
:10592000006CDC021BB70000008000403CB000406F
:1059300030B00040002F685900800240008C86473C
:1059400000C0024030800040001BB7003C80004097
:10595000405973075480004054B0004060800040BC
:1059600060B000406C8000406CB000404880004057
:1059700048B00040014B8000C05870472C08002000
:10598000F0B5C646040000B50C2090461F000E007E
:1059900001F098FC4101091A8D01691AC900091822
:1059A0008901404601F08EFC069B3F041A032368E0
:1059B0001743002B22DB1A4B1A4DE21853425A416F
:1059C00080235B019C461203174B62441A60174BFD
:1059D0001A601100AB689943FBD1C022231D9201CC
:1059E0001A4321232660A06013602368002BFCDA91
:1059F0000823E760136080BCB846F0BD3F232268EF
:105A00001340B342D7D1A3681B051B0D8342D2D1EB
:105A1000EE22E368D2021340BB42CCD1EBE7C04692
:105A20000040FDBF00C0004000E0004000F000402A
:105A30008023024A9B000343D362704700800540E5
:105A4000024B1A68024B5A607047C0460809002092
:105A500000800540184B0200184810B5D86180201E
:105A6000174BC0051860174C1748046000290AD06E
:105A7000E021164BC9041960002A09D18022134B7A
:105A800012061A6010BDE021C9041960002AF5D081
:105A900053019B1A98008023801800015B049842F0
:105AA00000D30B4880220B4BD2051860024B586084
:105AB000064B1A60E6E7C046008005402131B76A10
:105AC00000B00540FCFF01000820014000A0054097
:105AD000FFFFFF0008090020024B9868431E984111
